:100000000C9434000C9451000C9451000C94510049
:100010000C9451000C9451000C9451000C9451001C
:100020000C9451000C9451000C9451000C9451000C
:100030000C9451000C9451000C9451000C945100FC
:100040000C9451000C9451000C9451000C945100EC
:100050000C9451000C9426010C9451000C94510006
:100060000C9451000C94510011241FBECFEFD8E026
:10007000DEBFCDBF11E0A0E0B1E0EEE6F6E002C0E9
:1000800005900D92A030B107D9F721E0A0E0B1E0D2
:1000900001C01D92A130B207E1F70E94F3000C9459
:1000A00035030C940000F8941092C10084B1826072
:1000B00084B9A0E8B0E01C92E1E8F0E010828C91F5
:1000C00080688C938C9182608C938081886180831E
:1000D0008081826080838CE9809387008FE38093A6
:1000E000860078940895F8941092C10084B18860D5
:1000F00084B98AB188608AB9E0EBF0E01082A1EBA4
:10010000B0E01C92808180688083808183608083DE
:1001100080818062808380818F7E80838C918760E4
:100120008C9378940895ECE7F0E08081806480837C
:1001300080818F778083808180628083AEE7B0E0AA
:100140008C9181608C9380818E7F8083EAE7F0E0E0
:100150001082808188608083808187608083808135
:10016000806880830895ECE7F0E08081806480837C
:1001700080818F778083808180628083AEE7B0E06A
:100180008C9182608C93808181608083EAE7F0E0CB
:1001900010828081886080838081876080838081F5
:1001A000806880830895ECE7F0E08081806480833C
:1001B00080818F778083808180628083AEE7B0E02A
:1001C0008C9188608C93808183608083EAE7F0E083
:1001D00010828081886080838081876080838081B5
:1001E0008068808308950E9453000E9473000E94DB
:1001F00093000E94B3000E94D3008FEF84B9EAE716
:10020000F0E08081806480836091000181E00E9441
:100210003F018FE39CE90197F1F700C00000609176
:10022000000180E00E943F018FE39CE90197F1F714
:1002300000C000006091000183E00E943F018FE355
:100240009CE90197F1F700C00000DECF1F920F92EA
:100250000FB60F9211248F93EF93FF938091790043
:1002600080930001EAE7F0E0808180618083FF9164
:10027000EF918F910F900FBE0F901F9018958130C6
:1002800031F5ECE7F0E09081907F892B8083EAE7FD
:10029000F0E080818064808370E080E090E00E94E4
:1002A0003C0225E83BEE41E651E40E94C80220E012
:1002B00030EC45E954E40E949F010E940B027093C8
:1002C0008900E8E8F0E08081682B608332C081110A
:1002D00021C0ECE7F0E09081907F892B8083EAE7F2
:1002E000F0E080818064808370E080E090E00E9494
:1002F0003C0222E133E840EC5DE30E94C80226E6BE
:1003000036E646ED50E40E949F010E940B02609386
:10031000B3000FC0833069F4ECE7F0E09081907F88
:10032000892B8083EAE7F0E080818064808360939A
:10033000B40080917A0086FDFCCF08955058BB2709
:10034000AA270E94B6010C948E020E94800238F007
:100350000E94870220F039F49F3F19F426F40C9490
:100360007D020EF4E095E7FB0C947702E92F0E94E2
:100370009F0258F3BA17620773078407950720F0A6
:1003800079F4A6F50C94C1020EF4E0950B2EBA2F69
:10039000A02D0B01B90190010C01CA01A00111248B
:1003A000FF27591B99F0593F50F4503E68F11A1637
:1003B000F040A22F232F342F4427585FF3CF4695C8
:1003C00037952795A795F0405395C9F77EF41F16EA
:1003D000BA0B620B730B840BBAF09150A1F0FF0FB4
:1003E000BB1F661F771F881FC2F70EC0BA0F621FA0
:1003F000731F841F48F4879577956795B795F79590
:100400009E3F08F0B0CF9395880F08F09927EE0F24
:100410009795879508950E94A70288F09F5798F0B6
:10042000B92F9927B751B0F0E1F0660F771F881FF9
:10043000991F1AF0BA95C9F714C0B13091F00E9413
:10044000C102B1E008950C94C102672F782F88276C
:10045000B85F39F0B93FCCF3869577956795B3953A
:10046000D9F73EF490958095709561957F4F8F4FA9
:100470009F4F0895E89409C097FB3EF490958095AE
:10048000709561957F4F8F4F9F4F9923A9F0F92F5A
:1004900096E9BB279395F695879577956795B795D8
:1004A000F111F8CFFAF4BB0F11F460FF1BC06F5FBE
:1004B0007F4F8F4F9F4F16C0882311F096E911C0D0
:1004C000772321F09EE8872F762F05C0662371F0F1
:1004D00096E8862F70E060E02AF09A95660F771F05
:1004E000881FDAF7880F9695879597F9089597F9F9
:1004F0009F6780E870E060E008959FEF80EC0895CA
:1005000000240A94161617061806090608950024F2
:100510000A9412161306140605060895092E03946C
:10052000000C11F4882352F0BB0F40F4BF2B11F4E0
:1005300060FF04C06F5F7F4F8F4F9F4F089557FD3F
:100540009058440F551F59F05F3F71F04795880F41
:1005500097FB991F61F09F3F79F0879508951216D8
:1005600013061406551FF2CF4695F1DF08C0161684
:1005700017061806991FF1CF869571056105089435
:100580000895E894BB2766277727CB0197F908954C
:100590000E94DB020C948E020E94800238F00E94BE
:1005A000870220F0952311F00C9477020C947D02C1
:1005B00011240C94C2020E949F0270F3959FC1F314
:1005C000950F50E0551F629FF001729FBB27F00D01
:1005D000B11D639FAA27F00DB11DAA1F649F662756
:1005E000B00DA11D661F829F2227B00DA11D621FA5
:1005F000739FB00DA11D621F839FA00D611D221F5F
:10060000749F3327A00D611D231F849F600D211D42
:10061000822F762F6A2F11249F5750409AF0F1F0C5
:1006200088234AF0EE0FFF1FBB1F661F771F881F2E
:1006300091505040A9F79E3F510580F00C947702ED
:100640000C94C2025F3FE4F3983ED4F3869577950D
:100650006795B795F795E7959F5FC1F7FE2B880FD4
:0E066000911D9695879597F90895F894FFCF10
:00000001FF
